{
  "contractName": "Campaign",
  "abi": [
    {
      "inputs": [
        {
          "components": [
            {
              "internalType": "string",
              "name": "name",
              "type": "string"
            },
            {
              "internalType": "string",
              "name": "description",
              "type": "string"
            },
            {
              "internalType": "string",
              "name": "imageUrl",
              "type": "string"
            },
            {
              "internalType": "uint256",
              "name": "valueGoal",
              "type": "uint256"
            },
            {
              "internalType": "bool",
              "name": "closed",
              "type": "bool"
            }
          ],
          "internalType": "struct Campaign.Meta",
          "name": "_metadata",
          "type": "tuple"
        },
        {
          "internalType": "address",
          "name": "_manager",
          "type": "address"
        }
      ],
      "stateMutability": "nonpayable",
      "type": "constructor"
    },
    {
      "inputs": [],
      "name": "manager",
      "outputs": [
        {
          "internalType": "address",
          "name": "",
          "type": "address"
        }
      ],
      "stateMutability": "view",
      "type": "function"
    },
    {
      "inputs": [],
      "name": "metadata",
      "outputs": [
        {
          "internalType": "string",
          "name": "name",
          "type": "string"
        },
        {
          "internalType": "string",
          "name": "description",
          "type": "string"
        },
        {
          "internalType": "string",
          "name": "imageUrl",
          "type": "string"
        },
        {
          "internalType": "uint256",
          "name": "valueGoal",
          "type": "uint256"
        },
        {
          "internalType": "bool",
          "name": "closed",
          "type": "bool"
        }
      ],
      "stateMutability": "view",
      "type": "function"
    },
    {
      "inputs": [
        {
          "internalType": "uint256",
          "name": "",
          "type": "uint256"
        }
      ],
      "name": "planIds",
      "outputs": [
        {
          "internalType": "uint256",
          "name": "",
          "type": "uint256"
        }
      ],
      "stateMutability": "view",
      "type": "function"
    },
    {
      "inputs": [
        {
          "internalType": "uint256",
          "name": "",
          "type": "uint256"
        }
      ],
      "name": "plans",
      "outputs": [
        {
          "internalType": "uint256",
          "name": "id",
          "type": "uint256"
        },
        {
          "internalType": "uint256",
          "name": "amount",
          "type": "uint256"
        },
        {
          "internalType": "string",
          "name": "name",
          "type": "string"
        },
        {
          "internalType": "uint256",
          "name": "fundersCount",
          "type": "uint256"
        },
        {
          "internalType": "bool",
          "name": "votable",
          "type": "bool"
        }
      ],
      "stateMutability": "view",
      "type": "function"
    },
    {
      "inputs": [
        {
          "internalType": "uint256",
          "name": "",
          "type": "uint256"
        }
      ],
      "name": "requestIds",
      "outputs": [
        {
          "internalType": "uint256",
          "name": "",
          "type": "uint256"
        }
      ],
      "stateMutability": "view",
      "type": "function"
    },
    {
      "inputs": [
        {
          "internalType": "uint256",
          "name": "",
          "type": "uint256"
        }
      ],
      "name": "requests",
      "outputs": [
        {
          "internalType": "uint256",
          "name": "id",
          "type": "uint256"
        },
        {
          "internalType": "string",
          "name": "name",
          "type": "string"
        },
        {
          "internalType": "uint256",
          "name": "amount",
          "type": "uint256"
        },
        {
          "internalType": "uint256",
          "name": "necessaryApprovals",
          "type": "uint256"
        },
        {
          "internalType": "address payable",
          "name": "destination",
          "type": "address"
        },
        {
          "internalType": "uint256",
          "name": "approversCount",
          "type": "uint256"
        },
        {
          "internalType": "bool",
          "name": "approved",
          "type": "bool"
        },
        {
          "internalType": "bool",
          "name": "executed",
          "type": "bool"
        }
      ],
      "stateMutability": "view",
      "type": "function"
    },
    {
      "inputs": [
        {
          "internalType": "uint256",
          "name": "requestId",
          "type": "uint256"
        }
      ],
      "name": "approve",
      "outputs": [],
      "stateMutability": "payable",
      "type": "function"
    },
    {
      "inputs": [
        {
          "internalType": "uint256",
          "name": "requestId",
          "type": "uint256"
        }
      ],
      "name": "executeRequest",
      "outputs": [],
      "stateMutability": "payable",
      "type": "function"
    },
    {
      "inputs": [
        {
          "internalType": "uint256",
          "name": "planIndex",
          "type": "uint256"
        }
      ],
      "name": "contribute",
      "outputs": [],
      "stateMutability": "payable",
      "type": "function"
    },
    {
      "inputs": [
        {
          "internalType": "uint256",
          "name": "_id",
          "type": "uint256"
        },
        {
          "internalType": "uint256",
          "name": "_amount",
          "type": "uint256"
        },
        {
          "internalType": "string",
          "name": "_name",
          "type": "string"
        },
        {
          "internalType": "bool",
          "name": "_votable",
          "type": "bool"
        }
      ],
      "name": "createPlan",
      "outputs": [],
      "stateMutability": "nonpayable",
      "type": "function"
    },
    {
      "inputs": [],
      "name": "close",
      "outputs": [
        {
          "internalType": "bytes",
          "name": "",
          "type": "bytes"
        }
      ],
      "stateMutability": "nonpayable",
      "type": "function"
    },
    {
      "inputs": [
        {
          "internalType": "uint256",
          "name": "_id",
          "type": "uint256"
        },
        {
          "internalType": "string",
          "name": "_name",
          "type": "string"
        },
        {
          "internalType": "uint256",
          "name": "_amount",
          "type": "uint256"
        },
        {
          "internalType": "address payable",
          "name": "_destination",
          "type": "address"
        }
      ],
      "name": "createRequest",
      "outputs": [],
      "stateMutability": "nonpayable",
      "type": "function"
    },
    {
      "inputs": [],
      "name": "getValue",
      "outputs": [
        {
          "internalType": "uint256",
          "name": "",
          "type": "uint256"
        }
      ],
      "stateMutability": "view",
      "type": "function"
    },
    {
      "inputs": [],
      "name": "getPlanIds",
      "outputs": [
        {
          "internalType": "uint256[]",
          "name": "",
          "type": "uint256[]"
        }
      ],
      "stateMutability": "view",
      "type": "function"
    },
    {
      "inputs": [],
      "name": "getRequestIds",
      "outputs": [
        {
          "internalType": "uint256[]",
          "name": "",
          "type": "uint256[]"
        }
      ],
      "stateMutability": "view",
      "type": "function"
    }
  ],
  "bytecode": "0x60806040523480156200001157600080fd5b5060405162002eed38038062002eed833981810160405281019062000037919062000538565b80600560006101000a81548173ffffffffffffffffffffffffffffffffffffffff021916908373ffffffffffffffffffffffffffffffffffffffff16021790555081600080820151816000019080519060200190620000989291906200010c565b506020820151816001019080519060200190620000b79291906200010c565b506040820151816002019080519060200190620000d69291906200010c565b506060820151816003015560808201518160040160006101000a81548160ff021916908315150217905550905050505062000603565b8280546200011a90620005cd565b90600052602060002090601f0160209004810192826200013e57600085556200018a565b82601f106200015957805160ff19168380011785556200018a565b828001600101855582156200018a579182015b82811115620001895782518255916020019190600101906200016c565b5b5090506200019991906200019d565b5090565b5b80821115620001b85760008160009055506001016200019e565b5090565b6000604051905090565b600080fd5b600080fd5b600080fd5b6000601f19601f8301169050919050565b7f4e487b7100000000000000000000000000000000000000000000000000000000600052604160045260246000fd5b6200022082620001d5565b810181811067ffffffffffffffff82111715620002425762000241620001e6565b5b80604052505050565b600062000257620001bc565b905062000265828262000215565b919050565b600080fd5b600080fd5b600080fd5b600067ffffffffffffffff821115620002975762000296620001e6565b5b620002a282620001d5565b9050602081019050919050565b60005b83811015620002cf578082015181840152602081019050620002b2565b83811115620002df576000848401525b50505050565b6000620002fc620002f68462000279565b6200024b565b9050828152602081018484840111156200031b576200031a62000274565b5b62000328848285620002af565b509392505050565b600082601f8301126200034857620003476200026f565b5b81516200035a848260208601620002e5565b91505092915050565b6000819050919050565b620003788162000363565b81146200038457600080fd5b50565b60008151905062000398816200036d565b92915050565b60008115159050919050565b620003b5816200039e565b8114620003c157600080fd5b50565b600081519050620003d581620003aa565b92915050565b600060a08284031215620003f457620003f3620001d0565b5b6200040060a06200024b565b9050600082015167ffffffffffffffff8111156200042357620004226200026a565b5b620004318482850162000330565b600083015250602082015167ffffffffffffffff8111156200045857620004576200026a565b5b620004668482850162000330565b602083015250604082015167ffffffffffffffff8111156200048d576200048c6200026a565b5b6200049b8482850162000330565b6040830152506060620004b18482850162000387565b6060830152506080620004c784828501620003c4565b60808301525092915050565b600073ffffffffffffffffffffffffffffffffffffffff82169050919050565b60006200050082620004d3565b9050919050565b6200051281620004f3565b81146200051e57600080fd5b50565b600081519050620005328162000507565b92915050565b60008060408385031215620005525762000551620001c6565b5b600083015167ffffffffffffffff811115620005735762000572620001cb565b5b6200058185828601620003db565b9250506020620005948582860162000521565b9150509250929050565b7f4e487b7100000000000000000000000000000000000000000000000000000000600052602260045260246000fd5b60006002820490506001821680620005e657607f821691505b60208210811415620005fd57620005fc6200059e565b5b50919050565b6128da80620006136000396000f3fe6080604052600436106100e85760003560e01c806381d12c581161008a578063b759f95411610059578063b759f9541461030c578063bf30e22a14610328578063c1cbbca714610351578063f8efb81f1461036d576100e8565b806381d12c581461021f5780638796ba8c14610263578063ac33a273146102a0578063b1620616146102cb576100e8565b806343d726d6116100c657806343d726d614610184578063481c6a75146101af5780636e417c69146101da5780637374a1bf146101f6576100e8565b806320965255146100ed578063392f37e91461011857806342d4533a14610147575b600080fd5b3480156100f957600080fd5b50610102610398565b60405161010f91906116eb565b60405180910390f35b34801561012457600080fd5b5061012d6103a0565b60405161013e9594939291906117ba565b60405180910390f35b34801561015357600080fd5b5061016e60048036038101906101699190611862565b610569565b60405161017b91906116eb565b60405180910390f35b34801561019057600080fd5b5061019961058d565b6040516101a691906118e4565b60405180910390f35b3480156101bb57600080fd5b506101c46107b5565b6040516101d19190611947565b60405180910390f35b6101f460048036038101906101ef9190611862565b6107db565b005b34801561020257600080fd5b5061021d60048036038101906102189190611ad5565b6109b8565b005b34801561022b57600080fd5b5061024660048036038101906102419190611862565b610c5f565b60405161025a989796959493929190611b67565b60405180910390f35b34801561026f57600080fd5b5061028a60048036038101906102859190611862565b610d69565b60405161029791906116eb565b60405180910390f35b3480156102ac57600080fd5b506102b5610d8d565b6040516102c29190611caa565b60405180910390f35b3480156102d757600080fd5b506102f260048036038101906102ed9190611862565b610de5565b604051610303959493929190611ccc565b60405180910390f35b61032660048036038101906103219190611862565b610eb0565b005b34801561033457600080fd5b5061034f600480360381019061034a9190611d52565b6110d3565b005b61036b60048036038101906103669190611862565b6112f8565b005b34801561037957600080fd5b50610382611596565b60405161038f9190611caa565b60405180910390f35b600047905090565b60008060000180546103b190611e04565b80601f01602080910402602001604051908101604052809291908181526020018280546103dd90611e04565b801561042a5780601f106103ff5761010080835404028352916020019161042a565b820191906000526020600020905b81548152906001019060200180831161040d57829003601f168201915b50505050509080600101805461043f90611e04565b80601f016020809104026020016040519081016040528092919081815260200182805461046b90611e04565b80156104b85780601f1061048d576101008083540402835291602001916104b8565b820191906000526020600020905b81548152906001019060200180831161049b57829003601f168201915b5050505050908060020180546104cd90611e04565b80601f01602080910402602001604051908101604052809291908181526020018280546104f990611e04565b80156105465780601f1061051b57610100808354040283529160200191610546565b820191906000526020600020905b81548152906001019060200180831161052957829003601f168201915b5050505050908060030154908060040160009054906101000a900460ff16905085565b6007818154811061057957600080fd5b906000526020600020016000915090505481565b606060001515600060040160009054906101000a900460ff161515146105e8576040517f08c379a00000000000000000000000000000000000000000000000000000000081526004016105df90611e82565b60405180910390fd5b600560009054906101000a900473ffffffffffffffffffffffffffffffffffffffff1673ffffffffffffffffffffffffffffffffffffffff163373ffffffffffffffffffffffffffffffffffffffff1614610678576040517f08c379a000000000000000000000000000000000000000000000000000000000815260040161066f90611f14565b60405180910390fd5b47600060030154116106bf576040517f08c379a00000000000000000000000000000000000000000000000000000000081526004016106b690611fa6565b60405180910390fd5b6001600060040160006101000a81548160ff021916908315150217905550600080600560009054906101000a900473ffffffffffffffffffffffffffffffffffffffff1673ffffffffffffffffffffffffffffffffffffffff164760405161072690611ff7565b60006040518083038185875af1925050503d8060008114610763576040519150601f19603f3d011682016040523d82523d6000602084013e610768565b606091505b5091509150816107ad576040517f08c379a00000000000000000000000000000000000000000000000000000000081526004016107a490612058565b60405180910390fd5b809250505090565b600560009054906101000a900473ffffffffffffffffffffffffffffffffffffffff1681565b60001515600060040160009054906101000a900460ff16151514610834576040517f08c379a000000000000000000000000000000000000000000000000000000000815260040161082b90611e82565b60405180910390fd5b600080610840836115ee565b9150915080610884576040517f08c379a000000000000000000000000000000000000000000000000000000000815260040161087b906120c4565b60405180910390fd5b8160070160019054906101000a900460ff16156108d6576040517f08c379a00000000000000000000000000000000000000000000000000000000081526004016108cd90612156565b60405180910390fd5b8160070160009054906101000a900460ff16610927576040517f08c379a000000000000000000000000000000000000000000000000000000000815260040161091e906121c2565b60405180910390fd5b8160040160009054906101000a900473ffffffffffffffffffffffffffffffffffffffff1673ffffffffffffffffffffffffffffffffffffffff166108fc83600201549081150290604051600060405180830381858888f19350505050158015610995573d6000803e3d6000fd5b5060018260070160016101000a81548160ff021916908315150217905550505050565b60001515600060040160009054906101000a900460ff16151514610a11576040517f08c379a0000000000000000000000000000000000000000000000000000000008152600401610a0890611e82565b60405180910390fd5b600560009054906101000a900473ffffffffffffffffffffffffffffffffffffffff1673ffffffffffffffffffffffffffffffffffffffff163373ffffffffffffffffffffffffffffffffffffffff1614610aa1576040517f08c379a0000000000000000000000000000000000000000000000000000000008152600401610a9890611f14565b60405180910390fd5b836000600a600083815260200190815260200160002090506000816000015414610b00576040517f08c379a0000000000000000000000000000000000000000000000000000000008152600401610af79061222e565b60405180910390fd5b60008611610b43576040517f08c379a0000000000000000000000000000000000000000000000000000000008152600401610b3a906122c0565b60405180910390fd5b600060646032600654610b56919061233e565b610b60919061236f565b90506000600a6000898152602001908152602001600020905087816000018190555085816002018190555086816001019080519060200190610ba392919061162f565b50848160040160006101000a81548173ffffffffffffffffffffffffffffffffffffffff021916908373ffffffffffffffffffffffffffffffffffffffff160217905550818160030181905550600082148160070160006101000a81548160ff02191690831515021790555060008160070160016101000a81548160ff02191690831515021790555060098890806001815401808255809150506001900390600052602060002001600090919091909150555050505050505050565b600a602052806000526040600020600091509050806000015490806001018054610c8890611e04565b80601f0160208091040260200160405190810160405280929190818152602001828054610cb490611e04565b8015610d015780601f10610cd657610100808354040283529160200191610d01565b820191906000526020600020905b815481529060010190602001808311610ce457829003601f168201915b5050505050908060020154908060030154908060040160009054906101000a900473ffffffffffffffffffffffffffffffffffffffff16908060060154908060070160009054906101000a900460ff16908060070160019054906101000a900460ff16905088565b60098181548110610d7957600080fd5b906000526020600020016000915090505481565b60606009805480602002602001604051908101604052809291908181526020018280548015610ddb57602002820191906000526020600020905b815481526020019060010190808311610dc7575b5050505050905090565b6008602052806000526040600020600091509050806000015490806001015490806002018054610e1490611e04565b80601f0160208091040260200160405190810160405280929190818152602001828054610e4090611e04565b8015610e8d5780601f10610e6257610100808354040283529160200191610e8d565b820191906000526020600020905b815481529060010190602001808311610e7057829003601f168201915b5050505050908060040154908060050160009054906101000a900460ff16905085565b600080610ebc836115ee565b9150915080610f00576040517f08c379a0000000000000000000000000000000000000000000000000000000008152600401610ef7906120c4565b60405180910390fd5b8160070160019054906101000a900460ff1615610f52576040517f08c379a0000000000000000000000000000000000000000000000000000000008152600401610f4990612156565b60405180910390fd5b8160070160009054906101000a900460ff1615610fa4576040517f08c379a0000000000000000000000000000000000000000000000000000000008152600401610f9b90612415565b60405180910390fd5b8160050160003373ffffffffffffffffffffffffffffffffffffffff1673ffffffffffffffffffffffffffffffffffffffff16815260200190815260200160002060009054906101000a900460ff1615611033576040517f08c379a000000000000000000000000000000000000000000000000000000000815260040161102a906124a7565b60405180910390fd5b60018260050160003373ffffffffffffffffffffffffffffffffffffffff1673ffffffffffffffffffffffffffffffffffffffff16815260200190815260200160002060006101000a81548160ff0219169083151502179055508160060160008154809291906110a2906124c7565b91905055508160030154826006015410158260070160006101000a81548160ff021916908315150217905550505050565b60001515600060040160009054906101000a900460ff1615151461112c576040517f08c379a000000000000000000000000000000000000000000000000000000000815260040161112390611e82565b60405180910390fd5b600560009054906101000a900473ffffffffffffffffffffffffffffffffffffffff1673ffffffffffffffffffffffffffffffffffffffff163373ffffffffffffffffffffffffffffffffffffffff16146111bc576040517f08c379a00000000000000000000000000000000000000000000000000000000081526004016111b390611f14565b60405180910390fd5b836000600860008381526020019081526020016000209050600081600001541461121b576040517f08c379a000000000000000000000000000000000000000000000000000000000815260040161121290612582565b60405180910390fd5b6000861161125e576040517f08c379a0000000000000000000000000000000000000000000000000000000008152600401611255906122c0565b60405180910390fd5b60006008600088815260200190815260200160002090508681600001819055508581600101819055508481600201908051906020019061129f92919061162f565b50838160050160006101000a81548160ff02191690831515021790555060008160040181905550600787908060018154018082558091505060019003906000526020600020016000909190919091505550505050505050565b60001515600060040160009054906101000a900460ff16151514611351576040517f08c379a000000000000000000000000000000000000000000000000000000000815260040161134890611e82565b60405180910390fd5b806000600860008381526020019081526020016000209050600081600001541180156113805750818160000154145b60405160200161138f906125f9565b604051602081830303815290604052906113df576040517f08c379a00000000000000000000000000000000000000000000000000000000081526004016113d6919061260e565b60405180910390fd5b50806001015434148160020182600101546040516020016114019291906127c9565b60405160208183030381529060405290611451576040517f08c379a0000000000000000000000000000000000000000000000000000000008152600401611448919061260e565b60405180910390fd5b508060030160003373ffffffffffffffffffffffffffffffffffffffff1673ffffffffffffffffffffffffffffffffffffffff16815260200190815260200160002060009054906101000a900460ff16156114e1576040517f08c379a00000000000000000000000000000000000000000000000000000000081526004016114d890612884565b60405180910390fd5b60016008600085815260200190815260200160002060030160003373ffffffffffffffffffffffffffffffffffffffff1673ffffffffffffffffffffffffffffffffffffffff16815260200190815260200160002060006101000a81548160ff021916908315150217905550600860008481526020019081526020016000206004016000815480929190611574906124c7565b91905055506006600081548092919061158c906124c7565b9190505550505050565b606060078054806020026020016040519081016040528092919081815260200182805480156115e457602002820191906000526020600020905b8154815260200190600101908083116115d0575b5050505050905090565b6000806000600a60008581526020019081526020016000209050838160000154141561162157806001925092505061162a565b80600092509250505b915091565b82805461163b90611e04565b90600052602060002090601f01602090048101928261165d57600085556116a4565b82601f1061167657805160ff19168380011785556116a4565b828001600101855582156116a4579182015b828111156116a3578251825591602001919060010190611688565b5b5090506116b191906116b5565b5090565b5b808211156116ce5760008160009055506001016116b6565b5090565b6000819050919050565b6116e5816116d2565b82525050565b600060208201905061170060008301846116dc565b92915050565b600081519050919050565b600082825260208201905092915050565b60005b83811015611740578082015181840152602081019050611725565b8381111561174f576000848401525b50505050565b6000601f19601f8301169050919050565b600061177182611706565b61177b8185611711565b935061178b818560208601611722565b61179481611755565b840191505092915050565b60008115159050919050565b6117b48161179f565b82525050565b600060a08201905081810360008301526117d48188611766565b905081810360208301526117e88187611766565b905081810360408301526117fc8186611766565b905061180b60608301856116dc565b61181860808301846117ab565b9695505050505050565b6000604051905090565b600080fd5b600080fd5b61183f816116d2565b811461184a57600080fd5b50565b60008135905061185c81611836565b92915050565b6000602082840312156118785761187761182c565b5b60006118868482850161184d565b91505092915050565b600081519050919050565b600082825260208201905092915050565b60006118b68261188f565b6118c0818561189a565b93506118d0818560208601611722565b6118d981611755565b840191505092915050565b600060208201905081810360008301526118fe81846118ab565b905092915050565b600073ffffffffffffffffffffffffffffffffffffffff82169050919050565b600061193182611906565b9050919050565b61194181611926565b82525050565b600060208201905061195c6000830184611938565b92915050565b600080fd5b600080fd5b7f4e487b7100000000000000000000000000000000000000000000000000000000600052604160045260246000fd5b6119a482611755565b810181811067ffffffffffffffff821117156119c3576119c261196c565b5b80604052505050565b60006119d6611822565b90506119e2828261199b565b919050565b600067ffffffffffffffff821115611a0257611a0161196c565b5b611a0b82611755565b9050602081019050919050565b82818337600083830152505050565b6000611a3a611a35846119e7565b6119cc565b905082815260208101848484011115611a5657611a55611967565b5b611a61848285611a18565b509392505050565b600082601f830112611a7e57611a7d611962565b5b8135611a8e848260208601611a27565b91505092915050565b6000611aa282611906565b9050919050565b611ab281611a97565b8114611abd57600080fd5b50565b600081359050611acf81611aa9565b92915050565b60008060008060808587031215611aef57611aee61182c565b5b6000611afd8782880161184d565b945050602085013567ffffffffffffffff811115611b1e57611b1d611831565b5b611b2a87828801611a69565b9350506040611b3b8782880161184d565b9250506060611b4c87828801611ac0565b91505092959194509250565b611b6181611a97565b82525050565b600061010082019050611b7d600083018b6116dc565b8181036020830152611b8f818a611766565b9050611b9e60408301896116dc565b611bab60608301886116dc565b611bb86080830187611b58565b611bc560a08301866116dc565b611bd260c08301856117ab565b611bdf60e08301846117ab565b9998505050505050505050565b600081519050919050565b600082825260208201905092915050565b6000819050602082019050919050565b611c21816116d2565b82525050565b6000611c338383611c18565b60208301905092915050565b6000602082019050919050565b6000611c5782611bec565b611c618185611bf7565b9350611c6c83611c08565b8060005b83811015611c9d578151611c848882611c27565b9750611c8f83611c3f565b925050600181019050611c70565b5085935050505092915050565b60006020820190508181036000830152611cc48184611c4c565b905092915050565b600060a082019050611ce160008301886116dc565b611cee60208301876116dc565b8181036040830152611d008186611766565b9050611d0f60608301856116dc565b611d1c60808301846117ab565b9695505050505050565b611d2f8161179f565b8114611d3a57600080fd5b50565b600081359050611d4c81611d26565b92915050565b60008060008060808587031215611d6c57611d6b61182c565b5b6000611d7a8782880161184d565b9450506020611d8b8782880161184d565b935050604085013567ffffffffffffffff811115611dac57611dab611831565b5b611db887828801611a69565b9250506060611dc987828801611d3d565b91505092959194509250565b7f4e487b7100000000000000000000000000000000000000000000000000000000600052602260045260246000fd5b60006002820490506001821680611e1c57607f821691505b60208210811415611e3057611e2f611dd5565b5b50919050565b7f43616d706169676e20697320616c726561647920636c6f736564000000000000600082015250565b6000611e6c601a83611711565b9150611e7782611e36565b602082019050919050565b60006020820190508181036000830152611e9b81611e5f565b9050919050565b7f546869732066756e6374696f6e206973207265737472696374656420746f207460008201527f686520636f6e74726163742773206f776e657200000000000000000000000000602082015250565b6000611efe603383611711565b9150611f0982611ea2565b604082019050919050565b60006020820190508181036000830152611f2d81611ef1565b9050919050565b7f43616d706169676e2063616e277420626520636c6f73656420776974686f757460008201527f207265616368696e67206974732076616c756500000000000000000000000000602082015250565b6000611f90603383611711565b9150611f9b82611f34565b604082019050919050565b60006020820190508181036000830152611fbf81611f83565b9050919050565b600081905092915050565b50565b6000611fe1600083611fc6565b9150611fec82611fd1565b600082019050919050565b600061200282611fd4565b9150819050919050565b7f4661696c656420746f2073656e64204574686572000000000000000000000000600082015250565b6000612042601483611711565b915061204d8261200c565b602082019050919050565b6000602082019050818103600083015261207181612035565b9050919050565b7f5265717565737420646f6573206e6f7420657869737473000000000000000000600082015250565b60006120ae601783611711565b91506120b982612078565b602082019050919050565b600060208201905081810360008301526120dd816120a1565b9050919050565b7f5265717565737420686173206265656e20616c7265616479206578656375746560008201527f6400000000000000000000000000000000000000000000000000000000000000602082015250565b6000612140602183611711565b915061214b826120e4565b604082019050919050565b6000602082019050818103600083015261216f81612133565b9050919050565b7f52657175657374206973206e6f7420617070726f766564000000000000000000600082015250565b60006121ac601783611711565b91506121b782612176565b602082019050919050565b600060208201905081810360008301526121db8161219f565b9050919050565b7f5265717565737420616c72656164792065786973747300000000000000000000600082015250565b6000612218601683611711565b9150612223826121e2565b602082019050919050565b600060208201905081810360008301526122478161220b565b9050919050565b7f4964656e7469666965722068617320746f20626520677265617465722074686160008201527f6e207a65726f0000000000000000000000000000000000000000000000000000602082015250565b60006122aa602683611711565b91506122b58261224e565b604082019050919050565b600060208201905081810360008301526122d98161229d565b9050919050565b7f4e487b7100000000000000000000000000000000000000000000000000000000600052601260045260246000fd5b7f4e487b7100000000000000000000000000000000000000000000000000000000600052601160045260246000fd5b6000612349826116d2565b9150612354836116d2565b925082612364576123636122e0565b5b828204905092915050565b600061237a826116d2565b9150612385836116d2565b9250817fffffffffffffffffffffffffffffffffffffffffffffffffffffffffffffffff04831182151516156123be576123bd61230f565b5b828202905092915050565b7f5265717565737420697320616c726561647920617070726f7665640000000000600082015250565b60006123ff601b83611711565b915061240a826123c9565b602082019050919050565b6000602082019050818103600083015261242e816123f2565b9050919050565b7f526571756573742077617320616c726561647920617070726f7665642062792060008201527f6164647265737300000000000000000000000000000000000000000000000000602082015250565b6000612491602783611711565b915061249c82612435565b604082019050919050565b600060208201905081810360008301526124c081612484565b9050919050565b60006124d2826116d2565b91507fffffffffffffffffffffffffffffffffffffffffffffffffffffffffffffffff8214156125055761250461230f565b5b600182019050919050565b7f4964656e746966696572206f6620506c616e20616c726561647920657869737460008201527f7300000000000000000000000000000000000000000000000000000000000000602082015250565b600061256c602183611711565b915061257782612510565b604082019050919050565b6000602082019050818103600083015261259b8161255f565b9050919050565b600081905092915050565b7f506c616e206973206e6f7420666f756e64000000000000000000000000000000600082015250565b60006125e36011836125a2565b91506125ee826125ad565b601182019050919050565b6000612604826125d6565b9150819050919050565b600060208201905081810360008301526126288184611766565b905092915050565b7f506c616e20000000000000000000000000000000000000000000000000000000600082015250565b60006126666005836125a2565b915061267182612630565b600582019050919050565b60008190508160005260206000209050919050565b6000815461269e81611e04565b6126a881866125a2565b945060018216600081146126c357600181146126d457612707565b60ff19831686528186019350612707565b6126dd8561267c565b60005b838110156126ff578154818901526001820191506020810190506126e0565b838801955050505b50505092915050565b7f2072657175697265732000000000000000000000000000000000000000000000600082015250565b6000612746600a836125a2565b915061275182612710565b600a82019050919050565b6000819050919050565b612777612772826116d2565b61275c565b82525050565b7f2065746800000000000000000000000000000000000000000000000000000000600082015250565b60006127b36004836125a2565b91506127be8261277d565b600482019050919050565b60006127d482612659565b91506127e08285612691565b91506127eb82612739565b91506127f78284612766565b602082019150612806826127a6565b91508190509392505050565b7f506c616e2077617320616c72656164792073756273637269626564206279206160008201527f6464726573730000000000000000000000000000000000000000000000000000602082015250565b600061286e602683611711565b915061287982612812565b604082019050919050565b6000602082019050818103600083015261289d81612861565b905091905056fea264697066735822122093523a41bf9595dd42d1baf79a7f253eee75730771650597894feb90d99eb00964736f6c634300080a0033",
  "immutableReferences": {},
  "source": "// SPDX-License-Identifier: MIT\npragma solidity ^0.8.10;\n\ncontract Campaign {\n\n    struct Plan {\n        uint id;\n        uint amount;\n        string name;\n        mapping(address => bool) funders;\n        uint fundersCount;\n        bool votable;\n    }\n\n    struct SpendRequest {\n        uint id;\n        string name;\n        uint amount;\n        uint necessaryApprovals;\n        address payable destination;\n        mapping(address => bool) approvers;\n        uint approversCount;\n        bool approved;\n        bool executed;\n    }\n\n    struct Meta {\n        string name;\n        string description;\n        string imageUrl;\n        uint valueGoal;\n        bool closed;\n    }\n\n    Meta public metadata;\n    address public manager;\n    uint contributionsCount;\n    uint[] public planIds;\n    mapping(uint => Plan) public plans;\n    uint[] public requestIds;\n    mapping(uint => SpendRequest) public requests;\n\n    constructor(Meta memory _metadata, address _manager) {\n        manager = _manager;\n        metadata = _metadata;\n    }\n\n    modifier restrictedToManager() {\n        require(\n            msg.sender == manager,\n            \"This function is restricted to the contract's owner\"\n        );\n        _;\n    }\n\n    modifier planDoesntExists(uint id) {\n        Plan storage plan = plans[id];\n        require(\n            plan.id == 0,\n            \"Identifier of Plan already exists\"\n        );\n        _;\n    }\n\n    modifier campaignNotClosed() {\n\n        require(\n            metadata.closed == false,\n            \"Campaign is already closed\"\n        );\n        _;\n    }\n\n    modifier requestDoesntExists(uint id) {\n\n        SpendRequest storage request = requests[id];\n        require(\n            request.id == 0,\n            \"Request already exists\"\n        );\n        _;\n    }\n\n    modifier validateContribution(uint planId) {\n        Plan storage plan = plans[planId];\n        require(\n            plan.id > 0 && plan.id == planId,\n            string(abi.encodePacked( \"Plan is not found\"))\n        );\n        require(\n            msg.value == plan.amount,\n            string(abi.encodePacked( \"Plan \",plan.name, \" requires \", plan.amount, \" eth\"))\n        );\n        require(\n            !plan.funders[msg.sender],\n            \"Plan was already subscribed by address\"\n        );\n        _;\n    }\n\n\n    function approve(uint requestId) public payable  {\n        (SpendRequest storage request, bool found) = findRequestById(requestId);\n        require(\n            found,\n            \"Request does not exists\"\n        );\n        require(\n            !request.executed,\n            \"Request has been already executed\"\n        );\n        require(\n            !request.approved,\n            \"Request is already approved\"\n        );\n        require(\n            !request.approvers[msg.sender],\n            \"Request was already approved by address\"\n        );\n        request.approvers[msg.sender] = true;\n        request.approversCount++;\n        request.approved = request.approversCount >= request.necessaryApprovals;\n\n    }\n\n    function executeRequest(uint requestId) public payable campaignNotClosed {\n        (SpendRequest storage request, bool found) = findRequestById(requestId);\n        require(\n            found,\n            \"Request does not exists\"\n        );\n        require(\n            !request.executed,\n            \"Request has been already executed\"\n        );\n        require(\n            request.approved,\n            \"Request is not approved\"\n        );\n        request.destination.transfer(request.amount);\n        request.executed = true;\n    }\n\n    function contribute(uint planIndex) public payable campaignNotClosed validateContribution(planIndex) {\n        plans[planIndex].funders[msg.sender] = true;\n        plans[planIndex].fundersCount++;\n        contributionsCount++;\n    }\n\n    function createPlan(uint _id, uint _amount, string memory _name, bool _votable) public campaignNotClosed restrictedToManager planDoesntExists(_id) {\n        require(_id > 0,\n            \"Identifier has to be greater than zero\");\n        Plan storage newPlan = plans[_id];\n        newPlan.id = _id;\n        newPlan.amount = _amount;\n        newPlan.name = _name;\n        newPlan.votable = _votable;\n        newPlan.fundersCount = 0;\n        planIds.push(_id);\n    }\n\n    function close() public campaignNotClosed restrictedToManager returns(bytes memory) {\n        require(metadata.valueGoal > address(this).balance,\n            \"Campaign can't be closed without reaching its value\");\n        metadata.closed = true;\n        (bool sent, bytes memory data) =  manager.call{value: address(this).balance}(\"\");\n        require(sent, \"Failed to send Ether\");\n        return data;\n    }\n\n    function createRequest(uint _id,string memory _name, uint _amount,  address payable _destination) public campaignNotClosed restrictedToManager requestDoesntExists(_id) {\n        require(_id > 0,\n            \"Identifier has to be greater than zero\");\n        uint _necessaryApprovals = uint(contributionsCount / 50) * 100; // will ceil by truncating decimals\n        SpendRequest storage newRequest = requests[_id];\n        newRequest.id = _id;\n        newRequest.amount = _amount;\n        newRequest.name = _name;\n        newRequest.destination = _destination;\n        newRequest.necessaryApprovals = _necessaryApprovals;\n        newRequest.approved = _necessaryApprovals == 0;\n        newRequest.executed = false;\n        requestIds.push(_id);\n    }\n\n\n    function getValue() public view returns(uint) {\n        return address(this).balance;\n    }\n\n\n    function getPlanIds() public view returns (uint[] memory) {\n        return planIds;\n    }\n\n\n    function getRequestIds() public view returns (uint[] memory) {\n        return requestIds;\n    }\n\n    function findRequestById(uint id) view private returns (SpendRequest storage, bool){\n        SpendRequest storage request = requests[id];\n        if(request.id == id){\n            return (request, true);\n        }\n        return (request, false);\n    }\n\n}",
  "sourcePath": "/home/tmello/code/personal/crowdfunding-blockchain/contracts/Campaign.sol",
  "compiler": {
    "name": "solc",
    "version": "0.8.10+commit.fc410830.Emscripten.clang"
  },
  "schemaVersion": "3.4.4",
  "updatedAt": "2022-01-13T08:24:33.193Z",
  "devdoc": {
    "kind": "dev",
    "methods": {},
    "version": 1
  },
  "userdoc": {
    "kind": "user",
    "methods": {},
    "version": 1
  }
}