{
  "contractName": "Campaign",
  "abi": [
    {
      "inputs": [
        {
          "internalType": "uint256",
          "name": "_valueGoal",
          "type": "uint256"
        },
        {
          "internalType": "address",
          "name": "_manager",
          "type": "address"
        }
      ],
      "stateMutability": "nonpayable",
      "type": "constructor"
    },
    {
      "inputs": [],
      "name": "closed",
      "outputs": [
        {
          "internalType": "bool",
          "name": "",
          "type": "bool"
        }
      ],
      "stateMutability": "view",
      "type": "function"
    },
    {
      "inputs": [],
      "name": "manager",
      "outputs": [
        {
          "internalType": "address",
          "name": "",
          "type": "address"
        }
      ],
      "stateMutability": "view",
      "type": "function"
    },
    {
      "inputs": [
        {
          "internalType": "uint256",
          "name": "",
          "type": "uint256"
        }
      ],
      "name": "planIds",
      "outputs": [
        {
          "internalType": "uint256",
          "name": "",
          "type": "uint256"
        }
      ],
      "stateMutability": "view",
      "type": "function"
    },
    {
      "inputs": [
        {
          "internalType": "uint256",
          "name": "",
          "type": "uint256"
        }
      ],
      "name": "plans",
      "outputs": [
        {
          "internalType": "uint256",
          "name": "id",
          "type": "uint256"
        },
        {
          "internalType": "uint256",
          "name": "amount",
          "type": "uint256"
        },
        {
          "internalType": "string",
          "name": "name",
          "type": "string"
        },
        {
          "internalType": "uint256",
          "name": "fundersCount",
          "type": "uint256"
        },
        {
          "internalType": "bool",
          "name": "votable",
          "type": "bool"
        }
      ],
      "stateMutability": "view",
      "type": "function"
    },
    {
      "inputs": [
        {
          "internalType": "uint256",
          "name": "",
          "type": "uint256"
        }
      ],
      "name": "requestIds",
      "outputs": [
        {
          "internalType": "uint256",
          "name": "",
          "type": "uint256"
        }
      ],
      "stateMutability": "view",
      "type": "function"
    },
    {
      "inputs": [
        {
          "internalType": "uint256",
          "name": "",
          "type": "uint256"
        }
      ],
      "name": "requests",
      "outputs": [
        {
          "internalType": "uint256",
          "name": "id",
          "type": "uint256"
        },
        {
          "internalType": "string",
          "name": "name",
          "type": "string"
        },
        {
          "internalType": "uint256",
          "name": "amount",
          "type": "uint256"
        },
        {
          "internalType": "uint256",
          "name": "necessaryApprovals",
          "type": "uint256"
        },
        {
          "internalType": "address payable",
          "name": "destination",
          "type": "address"
        },
        {
          "internalType": "uint256",
          "name": "approversCount",
          "type": "uint256"
        },
        {
          "internalType": "bool",
          "name": "approved",
          "type": "bool"
        },
        {
          "internalType": "bool",
          "name": "executed",
          "type": "bool"
        }
      ],
      "stateMutability": "view",
      "type": "function"
    },
    {
      "inputs": [],
      "name": "valueGoal",
      "outputs": [
        {
          "internalType": "uint256",
          "name": "",
          "type": "uint256"
        }
      ],
      "stateMutability": "view",
      "type": "function"
    },
    {
      "inputs": [
        {
          "internalType": "uint256",
          "name": "requestId",
          "type": "uint256"
        }
      ],
      "name": "approve",
      "outputs": [],
      "stateMutability": "payable",
      "type": "function"
    },
    {
      "inputs": [
        {
          "internalType": "uint256",
          "name": "requestId",
          "type": "uint256"
        }
      ],
      "name": "executeRequest",
      "outputs": [],
      "stateMutability": "payable",
      "type": "function"
    },
    {
      "inputs": [
        {
          "internalType": "uint256",
          "name": "planIndex",
          "type": "uint256"
        }
      ],
      "name": "contribute",
      "outputs": [],
      "stateMutability": "payable",
      "type": "function"
    },
    {
      "inputs": [
        {
          "internalType": "uint256",
          "name": "_id",
          "type": "uint256"
        },
        {
          "internalType": "uint256",
          "name": "_amount",
          "type": "uint256"
        },
        {
          "internalType": "string",
          "name": "_name",
          "type": "string"
        },
        {
          "internalType": "bool",
          "name": "_votable",
          "type": "bool"
        }
      ],
      "name": "createPlan",
      "outputs": [],
      "stateMutability": "nonpayable",
      "type": "function"
    },
    {
      "inputs": [],
      "name": "close",
      "outputs": [
        {
          "internalType": "bytes",
          "name": "",
          "type": "bytes"
        }
      ],
      "stateMutability": "nonpayable",
      "type": "function"
    },
    {
      "inputs": [
        {
          "internalType": "uint256",
          "name": "_id",
          "type": "uint256"
        },
        {
          "internalType": "string",
          "name": "_name",
          "type": "string"
        },
        {
          "internalType": "uint256",
          "name": "_amount",
          "type": "uint256"
        },
        {
          "internalType": "address payable",
          "name": "_destination",
          "type": "address"
        }
      ],
      "name": "createRequest",
      "outputs": [],
      "stateMutability": "nonpayable",
      "type": "function"
    },
    {
      "inputs": [],
      "name": "getValue",
      "outputs": [
        {
          "internalType": "uint256",
          "name": "",
          "type": "uint256"
        }
      ],
      "stateMutability": "view",
      "type": "function"
    },
    {
      "inputs": [],
      "name": "getPlanIds",
      "outputs": [
        {
          "internalType": "uint256[]",
          "name": "",
          "type": "uint256[]"
        }
      ],
      "stateMutability": "view",
      "type": "function"
    },
    {
      "inputs": [],
      "name": "getRequestIds",
      "outputs": [
        {
          "internalType": "uint256[]",
          "name": "",
          "type": "uint256[]"
        }
      ],
      "stateMutability": "view",
      "type": "function"
    }
  ],
  "bytecode": "0x60806040523480156200001157600080fd5b50604051620028723803806200287283398181016040528101906200003791906200012b565b806000806101000a81548173ffffffffffffffffffffffffffffffffffffffff021916908373ffffffffffffffffffffffffffffffffffffffff16021790555081600181905550505062000172565b600080fd5b6000819050919050565b620000a0816200008b565b8114620000ac57600080fd5b50565b600081519050620000c08162000095565b92915050565b600073ffffffffffffffffffffffffffffffffffffffff82169050919050565b6000620000f382620000c6565b9050919050565b6200010581620000e6565b81146200011157600080fd5b50565b6000815190506200012581620000fa565b92915050565b6000806040838503121562000145576200014462000086565b5b60006200015585828601620000af565b9250506020620001688582860162000114565b9150509250929050565b6126f080620001826000396000f3fe6080604052600436106100f35760003560e01c80638796ba8c1161008a578063b759f95411610059578063b759f9541461033e578063bf30e22a1461035a578063c1cbbca714610383578063f8efb81f1461039f576100f3565b80638796ba8c1461026a5780639d102062146102a7578063ac33a273146102d2578063b1620616146102fd576100f3565b8063597e1fb5116100c6578063597e1fb5146101b65780636e417c69146101e15780637374a1bf146101fd57806381d12c5814610226576100f3565b806320965255146100f857806342d4533a1461012357806343d726d614610160578063481c6a751461018b575b600080fd5b34801561010457600080fd5b5061010d6103ca565b60405161011a919061154e565b60405180910390f35b34801561012f57600080fd5b5061014a600480360381019061014591906115a9565b6103d2565b604051610157919061154e565b60405180910390f35b34801561016c57600080fd5b506101756103f6565b604051610182919061166f565b60405180910390f35b34801561019757600080fd5b506101a0610611565b6040516101ad91906116d2565b60405180910390f35b3480156101c257600080fd5b506101cb610635565b6040516101d89190611708565b60405180910390f35b6101fb60048036038101906101f691906115a9565b610648565b005b34801561020957600080fd5b50610224600480360381019061021f9190611896565b610822565b005b34801561023257600080fd5b5061024d600480360381019061024891906115a9565b610ac4565b60405161026198979695949392919061197d565b60405180910390f35b34801561027657600080fd5b50610291600480360381019061028c91906115a9565b610bce565b60405161029e919061154e565b60405180910390f35b3480156102b357600080fd5b506102bc610bf2565b6040516102c9919061154e565b60405180910390f35b3480156102de57600080fd5b506102e7610bf8565b6040516102f49190611ac0565b60405180910390f35b34801561030957600080fd5b50610324600480360381019061031f91906115a9565b610c50565b604051610335959493929190611ae2565b60405180910390f35b610358600480360381019061035391906115a9565b610d1b565b005b34801561036657600080fd5b50610381600480360381019061037c9190611b68565b610f3e565b005b61039d600480360381019061039891906115a9565b61115e565b005b3480156103ab57600080fd5b506103b46113f9565b6040516103c19190611ac0565b60405180910390f35b600047905090565b600481815481106103e257600080fd5b906000526020600020016000915090505481565b606060001515600260009054906101000a900460ff1615151461044e576040517f08c379a000000000000000000000000000000000000000000000000000000000815260040161044590611c37565b60405180910390fd5b60008054906101000a900473ffffffffffffffffffffffffffffffffffffffff1673ffffffffffffffffffffffffffffffffffffffff163373ffffffffffffffffffffffffffffffffffffffff16146104dc576040517f08c379a00000000000000000000000000000000000000000000000000000000081526004016104d390611cc9565b60405180910390fd5b4760015411610520576040517f08c379a000000000000000000000000000000000000000000000000000000000815260040161051790611d5b565b60405180910390fd5b6001600260006101000a81548160ff02191690831515021790555060008060008054906101000a900473ffffffffffffffffffffffffffffffffffffffff1673ffffffffffffffffffffffffffffffffffffffff164760405161058290611dac565b60006040518083038185875af1925050503d80600081146105bf576040519150601f19603f3d011682016040523d82523d6000602084013e6105c4565b606091505b509150915081610609576040517f08c379a000000000000000000000000000000000000000000000000000000000815260040161060090611e0d565b60405180910390fd5b809250505090565b60008054906101000a900473ffffffffffffffffffffffffffffffffffffffff1681565b600260009054906101000a900460ff1681565b60001515600260009054906101000a900460ff1615151461069e576040517f08c379a000000000000000000000000000000000000000000000000000000000815260040161069590611c37565b60405180910390fd5b6000806106aa83611451565b91509150806106ee576040517f08c379a00000000000000000000000000000000000000000000000000000000081526004016106e590611e79565b60405180910390fd5b8160070160019054906101000a900460ff1615610740576040517f08c379a000000000000000000000000000000000000000000000000000000000815260040161073790611f0b565b60405180910390fd5b8160070160009054906101000a900460ff16610791576040517f08c379a000000000000000000000000000000000000000000000000000000000815260040161078890611f77565b60405180910390fd5b8160040160009054906101000a900473ffffffffffffffffffffffffffffffffffffffff1673ffffffffffffffffffffffffffffffffffffffff166108fc83600201549081150290604051600060405180830381858888f193505050501580156107ff573d6000803e3d6000fd5b5060018260070160016101000a81548160ff021916908315150217905550505050565b60001515600260009054906101000a900460ff16151514610878576040517f08c379a000000000000000000000000000000000000000000000000000000000815260040161086f90611c37565b60405180910390fd5b60008054906101000a900473ffffffffffffffffffffffffffffffffffffffff1673ffffffffffffffffffffffffffffffffffffffff163373ffffffffffffffffffffffffffffffffffffffff1614610906576040517f08c379a00000000000000000000000000000000000000000000000000000000081526004016108fd90611cc9565b60405180910390fd5b8360006007600083815260200190815260200160002090506000816000015414610965576040517f08c379a000000000000000000000000000000000000000000000000000000000815260040161095c90611fe3565b60405180910390fd5b600086116109a8576040517f08c379a000000000000000000000000000000000000000000000000000000000815260040161099f90612075565b60405180910390fd5b6000606460326003546109bb91906120f3565b6109c59190612124565b9050600060076000898152602001908152602001600020905087816000018190555085816002018190555086816001019080519060200190610a08929190611492565b50848160040160006101000a81548173ffffffffffffffffffffffffffffffffffffffff021916908373ffffffffffffffffffffffffffffffffffffffff160217905550818160030181905550600082148160070160006101000a81548160ff02191690831515021790555060008160070160016101000a81548160ff02191690831515021790555060068890806001815401808255809150506001900390600052602060002001600090919091909150555050505050505050565b6007602052806000526040600020600091509050806000015490806001018054610aed906121ad565b80601f0160208091040260200160405190810160405280929190818152602001828054610b19906121ad565b8015610b665780601f10610b3b57610100808354040283529160200191610b66565b820191906000526020600020905b815481529060010190602001808311610b4957829003601f168201915b5050505050908060020154908060030154908060040160009054906101000a900473ffffffffffffffffffffffffffffffffffffffff16908060060154908060070160009054906101000a900460ff16908060070160019054906101000a900460ff16905088565b60068181548110610bde57600080fd5b906000526020600020016000915090505481565b60015481565b60606006805480602002602001604051908101604052809291908181526020018280548015610c4657602002820191906000526020600020905b815481526020019060010190808311610c32575b5050505050905090565b6005602052806000526040600020600091509050806000015490806001015490806002018054610c7f906121ad565b80601f0160208091040260200160405190810160405280929190818152602001828054610cab906121ad565b8015610cf85780601f10610ccd57610100808354040283529160200191610cf8565b820191906000526020600020905b815481529060010190602001808311610cdb57829003601f168201915b5050505050908060040154908060050160009054906101000a900460ff16905085565b600080610d2783611451565b9150915080610d6b576040517f08c379a0000000000000000000000000000000000000000000000000000000008152600401610d6290611e79565b60405180910390fd5b8160070160019054906101000a900460ff1615610dbd576040517f08c379a0000000000000000000000000000000000000000000000000000000008152600401610db490611f0b565b60405180910390fd5b8160070160009054906101000a900460ff1615610e0f576040517f08c379a0000000000000000000000000000000000000000000000000000000008152600401610e069061222b565b60405180910390fd5b8160050160003373ffffffffffffffffffffffffffffffffffffffff1673ffffffffffffffffffffffffffffffffffffffff16815260200190815260200160002060009054906101000a900460ff1615610e9e576040517f08c379a0000000000000000000000000000000000000000000000000000000008152600401610e95906122bd565b60405180910390fd5b60018260050160003373ffffffffffffffffffffffffffffffffffffffff1673ffffffffffffffffffffffffffffffffffffffff16815260200190815260200160002060006101000a81548160ff021916908315150217905550816006016000815480929190610f0d906122dd565b91905055508160030154826006015410158260070160006101000a81548160ff021916908315150217905550505050565b60001515600260009054906101000a900460ff16151514610f94576040517f08c379a0000000000000000000000000000000000000000000000000000000008152600401610f8b90611c37565b60405180910390fd5b60008054906101000a900473ffffffffffffffffffffffffffffffffffffffff1673ffffffffffffffffffffffffffffffffffffffff163373ffffffffffffffffffffffffffffffffffffffff1614611022576040517f08c379a000000000000000000000000000000000000000000000000000000000815260040161101990611cc9565b60405180910390fd5b8360006005600083815260200190815260200160002090506000816000015414611081576040517f08c379a000000000000000000000000000000000000000000000000000000000815260040161107890612398565b60405180910390fd5b600086116110c4576040517f08c379a00000000000000000000000000000000000000000000000000000000081526004016110bb90612075565b60405180910390fd5b600060056000888152602001908152602001600020905086816000018190555085816001018190555084816002019080519060200190611105929190611492565b50838160050160006101000a81548160ff02191690831515021790555060008160040181905550600487908060018154018082558091505060019003906000526020600020016000909190919091505550505050505050565b60001515600260009054906101000a900460ff161515146111b4576040517f08c379a00000000000000000000000000000000000000000000000000000000081526004016111ab90611c37565b60405180910390fd5b806000600560008381526020019081526020016000209050600081600001541180156111e35750818160000154145b6040516020016111f29061240f565b60405160208183030381529060405290611242576040517f08c379a00000000000000000000000000000000000000000000000000000000081526004016112399190612424565b60405180910390fd5b50806001015434148160020182600101546040516020016112649291906125df565b604051602081830303815290604052906112b4576040517f08c379a00000000000000000000000000000000000000000000000000000000081526004016112ab9190612424565b60405180910390fd5b508060030160003373ffffffffffffffffffffffffffffffffffffffff1673ffffffffffffffffffffffffffffffffffffffff16815260200190815260200160002060009054906101000a900460ff1615611344576040517f08c379a000000000000000000000000000000000000000000000000000000000815260040161133b9061269a565b60405180910390fd5b60016005600085815260200190815260200160002060030160003373ffffffffffffffffffffffffffffffffffffffff1673ffffffffffffffffffffffffffffffffffffffff16815260200190815260200160002060006101000a81548160ff0219169083151502179055506005600084815260200190815260200160002060040160008154809291906113d7906122dd565b9190505550600360008154809291906113ef906122dd565b9190505550505050565b6060600480548060200260200160405190810160405280929190818152602001828054801561144757602002820191906000526020600020905b815481526020019060010190808311611433575b5050505050905090565b6000806000600760008581526020019081526020016000209050838160000154141561148457806001925092505061148d565b80600092509250505b915091565b82805461149e906121ad565b90600052602060002090601f0160209004810192826114c05760008555611507565b82601f106114d957805160ff1916838001178555611507565b82800160010185558215611507579182015b828111156115065782518255916020019190600101906114eb565b5b5090506115149190611518565b5090565b5b80821115611531576000816000905550600101611519565b5090565b6000819050919050565b61154881611535565b82525050565b6000602082019050611563600083018461153f565b92915050565b6000604051905090565b600080fd5b600080fd5b61158681611535565b811461159157600080fd5b50565b6000813590506115a38161157d565b92915050565b6000602082840312156115bf576115be611573565b5b60006115cd84828501611594565b91505092915050565b600081519050919050565b600082825260208201905092915050565b60005b838110156116105780820151818401526020810190506115f5565b8381111561161f576000848401525b50505050565b6000601f19601f8301169050919050565b6000611641826115d6565b61164b81856115e1565b935061165b8185602086016115f2565b61166481611625565b840191505092915050565b600060208201905081810360008301526116898184611636565b905092915050565b600073ffffffffffffffffffffffffffffffffffffffff82169050919050565b60006116bc82611691565b9050919050565b6116cc816116b1565b82525050565b60006020820190506116e760008301846116c3565b92915050565b60008115159050919050565b611702816116ed565b82525050565b600060208201905061171d60008301846116f9565b92915050565b600080fd5b600080fd5b7f4e487b7100000000000000000000000000000000000000000000000000000000600052604160045260246000fd5b61176582611625565b810181811067ffffffffffffffff821117156117845761178361172d565b5b80604052505050565b6000611797611569565b90506117a3828261175c565b919050565b600067ffffffffffffffff8211156117c3576117c261172d565b5b6117cc82611625565b9050602081019050919050565b82818337600083830152505050565b60006117fb6117f6846117a8565b61178d565b90508281526020810184848401111561181757611816611728565b5b6118228482856117d9565b509392505050565b600082601f83011261183f5761183e611723565b5b813561184f8482602086016117e8565b91505092915050565b600061186382611691565b9050919050565b61187381611858565b811461187e57600080fd5b50565b6000813590506118908161186a565b92915050565b600080600080608085870312156118b0576118af611573565b5b60006118be87828801611594565b945050602085013567ffffffffffffffff8111156118df576118de611578565b5b6118eb8782880161182a565b93505060406118fc87828801611594565b925050606061190d87828801611881565b91505092959194509250565b600081519050919050565b600082825260208201905092915050565b600061194082611919565b61194a8185611924565b935061195a8185602086016115f2565b61196381611625565b840191505092915050565b61197781611858565b82525050565b600061010082019050611993600083018b61153f565b81810360208301526119a5818a611935565b90506119b4604083018961153f565b6119c1606083018861153f565b6119ce608083018761196e565b6119db60a083018661153f565b6119e860c08301856116f9565b6119f560e08301846116f9565b9998505050505050505050565b600081519050919050565b600082825260208201905092915050565b6000819050602082019050919050565b611a3781611535565b82525050565b6000611a498383611a2e565b60208301905092915050565b6000602082019050919050565b6000611a6d82611a02565b611a778185611a0d565b9350611a8283611a1e565b8060005b83811015611ab3578151611a9a8882611a3d565b9750611aa583611a55565b925050600181019050611a86565b5085935050505092915050565b60006020820190508181036000830152611ada8184611a62565b905092915050565b600060a082019050611af7600083018861153f565b611b04602083018761153f565b8181036040830152611b168186611935565b9050611b25606083018561153f565b611b3260808301846116f9565b9695505050505050565b611b45816116ed565b8114611b5057600080fd5b50565b600081359050611b6281611b3c565b92915050565b60008060008060808587031215611b8257611b81611573565b5b6000611b9087828801611594565b9450506020611ba187828801611594565b935050604085013567ffffffffffffffff811115611bc257611bc1611578565b5b611bce8782880161182a565b9250506060611bdf87828801611b53565b91505092959194509250565b7f43616d706169676e20697320616c726561647920636c6f736564000000000000600082015250565b6000611c21601a83611924565b9150611c2c82611beb565b602082019050919050565b60006020820190508181036000830152611c5081611c14565b9050919050565b7f546869732066756e6374696f6e206973207265737472696374656420746f207460008201527f686520636f6e74726163742773206f776e657200000000000000000000000000602082015250565b6000611cb3603383611924565b9150611cbe82611c57565b604082019050919050565b60006020820190508181036000830152611ce281611ca6565b9050919050565b7f43616d706169676e2063616e277420626520636c6f73656420776974686f757460008201527f207265616368696e67206974732076616c756500000000000000000000000000602082015250565b6000611d45603383611924565b9150611d5082611ce9565b604082019050919050565b60006020820190508181036000830152611d7481611d38565b9050919050565b600081905092915050565b50565b6000611d96600083611d7b565b9150611da182611d86565b600082019050919050565b6000611db782611d89565b9150819050919050565b7f4661696c656420746f2073656e64204574686572000000000000000000000000600082015250565b6000611df7601483611924565b9150611e0282611dc1565b602082019050919050565b60006020820190508181036000830152611e2681611dea565b9050919050565b7f5265717565737420646f6573206e6f7420657869737473000000000000000000600082015250565b6000611e63601783611924565b9150611e6e82611e2d565b602082019050919050565b60006020820190508181036000830152611e9281611e56565b9050919050565b7f5265717565737420686173206265656e20616c7265616479206578656375746560008201527f6400000000000000000000000000000000000000000000000000000000000000602082015250565b6000611ef5602183611924565b9150611f0082611e99565b604082019050919050565b60006020820190508181036000830152611f2481611ee8565b9050919050565b7f52657175657374206973206e6f7420617070726f766564000000000000000000600082015250565b6000611f61601783611924565b9150611f6c82611f2b565b602082019050919050565b60006020820190508181036000830152611f9081611f54565b9050919050565b7f5265717565737420616c72656164792065786973747300000000000000000000600082015250565b6000611fcd601683611924565b9150611fd882611f97565b602082019050919050565b60006020820190508181036000830152611ffc81611fc0565b9050919050565b7f4964656e7469666965722068617320746f20626520677265617465722074686160008201527f6e207a65726f0000000000000000000000000000000000000000000000000000602082015250565b600061205f602683611924565b915061206a82612003565b604082019050919050565b6000602082019050818103600083015261208e81612052565b9050919050565b7f4e487b7100000000000000000000000000000000000000000000000000000000600052601260045260246000fd5b7f4e487b7100000000000000000000000000000000000000000000000000000000600052601160045260246000fd5b60006120fe82611535565b915061210983611535565b92508261211957612118612095565b5b828204905092915050565b600061212f82611535565b915061213a83611535565b9250817fffffffffffffffffffffffffffffffffffffffffffffffffffffffffffffffff0483118215151615612173576121726120c4565b5b828202905092915050565b7f4e487b7100000000000000000000000000000000000000000000000000000000600052602260045260246000fd5b600060028204905060018216806121c557607f821691505b602082108114156121d9576121d861217e565b5b50919050565b7f5265717565737420697320616c726561647920617070726f7665640000000000600082015250565b6000612215601b83611924565b9150612220826121df565b602082019050919050565b6000602082019050818103600083015261224481612208565b9050919050565b7f526571756573742077617320616c726561647920617070726f7665642062792060008201527f6164647265737300000000000000000000000000000000000000000000000000602082015250565b60006122a7602783611924565b91506122b28261224b565b604082019050919050565b600060208201905081810360008301526122d68161229a565b9050919050565b60006122e882611535565b91507fffffffffffffffffffffffffffffffffffffffffffffffffffffffffffffffff82141561231b5761231a6120c4565b5b600182019050919050565b7f4964656e746966696572206f6620506c616e20616c726561647920657869737460008201527f7300000000000000000000000000000000000000000000000000000000000000602082015250565b6000612382602183611924565b915061238d82612326565b604082019050919050565b600060208201905081810360008301526123b181612375565b9050919050565b600081905092915050565b7f506c616e206973206e6f7420666f756e64000000000000000000000000000000600082015250565b60006123f96011836123b8565b9150612404826123c3565b601182019050919050565b600061241a826123ec565b9150819050919050565b6000602082019050818103600083015261243e8184611935565b905092915050565b7f506c616e20000000000000000000000000000000000000000000000000000000600082015250565b600061247c6005836123b8565b915061248782612446565b600582019050919050565b60008190508160005260206000209050919050565b600081546124b4816121ad565b6124be81866123b8565b945060018216600081146124d957600181146124ea5761251d565b60ff1983168652818601935061251d565b6124f385612492565b60005b83811015612515578154818901526001820191506020810190506124f6565b838801955050505b50505092915050565b7f2072657175697265732000000000000000000000000000000000000000000000600082015250565b600061255c600a836123b8565b915061256782612526565b600a82019050919050565b6000819050919050565b61258d61258882611535565b612572565b82525050565b7f2065746800000000000000000000000000000000000000000000000000000000600082015250565b60006125c96004836123b8565b91506125d482612593565b600482019050919050565b60006125ea8261246f565b91506125f682856124a7565b91506126018261254f565b915061260d828461257c565b60208201915061261c826125bc565b91508190509392505050565b7f506c616e2077617320616c72656164792073756273637269626564206279206160008201527f6464726573730000000000000000000000000000000000000000000000000000602082015250565b6000612684602683611924565b915061268f82612628565b604082019050919050565b600060208201905081810360008301526126b381612677565b905091905056fea2646970667358221220ab8af189922289f0ec881b955976d5482307974eabe114322d5b3f2713f63a5364736f6c634300080a0033",
  "immutableReferences": {},
  "source": "// SPDX-License-Identifier: MIT\npragma solidity ^0.8.10;\n\ncontract Campaign {\n\n    struct Plan {\n        uint id;\n        uint amount;\n        string name;\n        mapping(address => bool) funders;\n        uint fundersCount;\n        bool votable;\n    }\n\n    struct SpendRequest {\n        uint id;\n        string name;\n        uint amount;\n        uint necessaryApprovals;\n        address payable destination;\n        mapping(address => bool) approvers;\n        uint approversCount;\n        bool approved;\n        bool executed;\n    }\n\n    address public manager;\n    uint public valueGoal;\n    bool public closed;\n    uint contributionsCount;\n\n    uint[] public planIds;\n    mapping(uint => Plan) public plans;\n    uint[] public requestIds;\n    mapping(uint => SpendRequest) public requests;\n\n\n    constructor(uint _valueGoal, address _manager) {\n        manager = _manager;\n        valueGoal = _valueGoal;\n    }\n\n    modifier restrictedToManager() {\n        require(\n            msg.sender == manager,\n            \"This function is restricted to the contract's owner\"\n        );\n        _;\n    }\n\n    modifier planDoesntExists(uint id) {\n        Plan storage plan = plans[id];\n        require(\n            plan.id == 0,\n            \"Identifier of Plan already exists\"\n        );\n        _;\n    }\n\n    modifier campaignNotClosed() {\n\n        require(\n            closed == false,\n            \"Campaign is already closed\"\n        );\n        _;\n    }\n\n    modifier requestDoesntExists(uint id) {\n\n        SpendRequest storage request = requests[id];\n        require(\n            request.id == 0,\n            \"Request already exists\"\n        );\n        _;\n    }\n\n\n\n    modifier validateContribution(uint planId) {\n        Plan storage plan = plans[planId];\n        require(\n            plan.id > 0 && plan.id == planId,\n            string(abi.encodePacked( \"Plan is not found\"))\n        );\n        require(\n            msg.value == plan.amount,\n            string(abi.encodePacked( \"Plan \",plan.name, \" requires \", plan.amount, \" eth\"))\n        );\n        require(\n            !plan.funders[msg.sender],\n            \"Plan was already subscribed by address\"\n        );\n        _;\n    }\n\n\n    function approve(uint requestId) public payable  {\n        (SpendRequest storage request, bool found) = findRequestById(requestId);\n        require(\n            found,\n            \"Request does not exists\"\n        );\n        require(\n            !request.executed,\n            \"Request has been already executed\"\n        );\n        require(\n            !request.approved,\n            \"Request is already approved\"\n        );\n        require(\n            !request.approvers[msg.sender],\n            \"Request was already approved by address\"\n        );\n        request.approvers[msg.sender] = true;\n        request.approversCount++;\n        request.approved = request.approversCount >= request.necessaryApprovals;\n\n    }\n\n    function executeRequest(uint requestId) public payable campaignNotClosed {\n        (SpendRequest storage request, bool found) = findRequestById(requestId);\n        require(\n            found,\n            \"Request does not exists\"\n        );\n        require(\n            !request.executed,\n            \"Request has been already executed\"\n        );\n        require(\n            request.approved,\n            \"Request is not approved\"\n        );\n        request.destination.transfer(request.amount);\n        request.executed = true;\n    }\n\n    function contribute(uint planIndex) public payable campaignNotClosed validateContribution(planIndex) {\n        plans[planIndex].funders[msg.sender] = true;\n        plans[planIndex].fundersCount++;\n        contributionsCount++;\n    }\n\n    function createPlan(uint _id, uint _amount, string memory _name, bool _votable) public campaignNotClosed restrictedToManager planDoesntExists(_id) {\n        require(_id > 0,\n            \"Identifier has to be greater than zero\");\n        Plan storage newPlan = plans[_id];\n        newPlan.id = _id;\n        newPlan.amount = _amount;\n        newPlan.name = _name;\n        newPlan.votable = _votable;\n        newPlan.fundersCount = 0;\n        planIds.push(_id);\n    }\n\n    function close() public campaignNotClosed restrictedToManager returns(bytes memory) {\n        require(valueGoal > address(this).balance,\n            \"Campaign can't be closed without reaching its value\");\n        closed = true;\n        (bool sent, bytes memory data) =  manager.call{value: address(this).balance}(\"\");\n        require(sent, \"Failed to send Ether\");\n        return data;\n    }\n\n    function createRequest(uint _id,string memory _name, uint _amount,  address payable _destination) public campaignNotClosed restrictedToManager requestDoesntExists(_id) {\n        require(_id > 0,\n            \"Identifier has to be greater than zero\");\n        uint _necessaryApprovals = uint(contributionsCount / 50) * 100; // will ceil by truncating decimals\n        SpendRequest storage newRequest = requests[_id];\n        newRequest.id = _id;\n        newRequest.amount = _amount;\n        newRequest.name = _name;\n        newRequest.destination = _destination;\n        newRequest.necessaryApprovals = _necessaryApprovals;\n        newRequest.approved = _necessaryApprovals == 0;\n        newRequest.executed = false;\n        requestIds.push(_id);\n    }\n\n\n    function getValue() public view returns(uint) {\n        return address(this).balance;\n    }\n\n\n    function getPlanIds() public view returns (uint[] memory) {\n        return planIds;\n    }\n\n\n    function getRequestIds() public view returns (uint[] memory) {\n        return requestIds;\n    }\n\n    function findRequestById(uint id) view private returns (SpendRequest storage, bool){\n        SpendRequest storage request = requests[id];\n        if(request.id == id){\n            return (request, true);\n        }\n        return (request, false);\n    }\n\n}",
  "sourcePath": "/home/tmello/code/personal/crowdfunding-blockchain/contracts/Campaign.sol",
  "compiler": {
    "name": "solc",
    "version": "0.8.10+commit.fc410830.Emscripten.clang"
  },
  "schemaVersion": "3.4.4",
  "updatedAt": "2022-01-01T14:43:04.699Z",
  "devdoc": {
    "kind": "dev",
    "methods": {},
    "version": 1
  },
  "userdoc": {
    "kind": "user",
    "methods": {},
    "version": 1
  }
}